{
  "address": "0x74482c175BF8494d9c29a7D4BD8fAD676De12AF4",
  "abi": [
    {
      "inputs": [
        {
          "internalType": "bytes32",
          "name": "_merkleRoot",
          "type": "bytes32"
        }
      ],
      "stateMutability": "nonpayable",
      "type": "constructor"
    },
    {
      "anonymous": false,
      "inputs": [
        {
          "indexed": true,
          "internalType": "address",
          "name": "owner",
          "type": "address"
        },
        {
          "indexed": true,
          "internalType": "address",
          "name": "approved",
          "type": "address"
        },
        {
          "indexed": true,
          "internalType": "uint256",
          "name": "tokenId",
          "type": "uint256"
        }
      ],
      "name": "Approval",
      "type": "event"
    },
    {
      "anonymous": false,
      "inputs": [
        {
          "indexed": true,
          "internalType": "address",
          "name": "owner",
          "type": "address"
        },
        {
          "indexed": true,
          "internalType": "address",
          "name": "operator",
          "type": "address"
        },
        {
          "indexed": false,
          "internalType": "bool",
          "name": "approved",
          "type": "bool"
        }
      ],
      "name": "ApprovalForAll",
      "type": "event"
    },
    {
      "anonymous": false,
      "inputs": [
        {
          "indexed": true,
          "internalType": "address",
          "name": "account",
          "type": "address"
        },
        {
          "indexed": false,
          "internalType": "uint256",
          "name": "amount",
          "type": "uint256"
        }
      ],
      "name": "FreeClaimed",
      "type": "event"
    },
    {
      "anonymous": false,
      "inputs": [
        {
          "indexed": true,
          "internalType": "address",
          "name": "previousOwner",
          "type": "address"
        },
        {
          "indexed": true,
          "internalType": "address",
          "name": "newOwner",
          "type": "address"
        }
      ],
      "name": "OwnershipTransferred",
      "type": "event"
    },
    {
      "anonymous": false,
      "inputs": [
        {
          "indexed": true,
          "internalType": "address",
          "name": "from",
          "type": "address"
        },
        {
          "indexed": true,
          "internalType": "address",
          "name": "to",
          "type": "address"
        },
        {
          "indexed": true,
          "internalType": "uint256",
          "name": "tokenId",
          "type": "uint256"
        }
      ],
      "name": "Transfer",
      "type": "event"
    },
    {
      "inputs": [],
      "name": "MAX_SUPPLY",
      "outputs": [
        {
          "internalType": "uint256",
          "name": "",
          "type": "uint256"
        }
      ],
      "stateMutability": "view",
      "type": "function"
    },
    {
      "inputs": [
        {
          "internalType": "address",
          "name": "to",
          "type": "address"
        },
        {
          "internalType": "uint256",
          "name": "tokenId",
          "type": "uint256"
        }
      ],
      "name": "approve",
      "outputs": [],
      "stateMutability": "nonpayable",
      "type": "function"
    },
    {
      "inputs": [
        {
          "internalType": "address",
          "name": "owner",
          "type": "address"
        }
      ],
      "name": "balanceOf",
      "outputs": [
        {
          "internalType": "uint256",
          "name": "",
          "type": "uint256"
        }
      ],
      "stateMutability": "view",
      "type": "function"
    },
    {
      "inputs": [
        {
          "internalType": "uint256",
          "name": "index",
          "type": "uint256"
        },
        {
          "internalType": "uint256",
          "name": "baseAmount",
          "type": "uint256"
        },
        {
          "internalType": "bytes32[]",
          "name": "merkleProof",
          "type": "bytes32[]"
        }
      ],
      "name": "claim",
      "outputs": [],
      "stateMutability": "nonpayable",
      "type": "function"
    },
    {
      "inputs": [
        {
          "internalType": "uint256",
          "name": "amount",
          "type": "uint256"
        }
      ],
      "name": "costForMint",
      "outputs": [
        {
          "internalType": "uint256",
          "name": "",
          "type": "uint256"
        }
      ],
      "stateMutability": "view",
      "type": "function"
    },
    {
      "inputs": [],
      "name": "endSale",
      "outputs": [],
      "stateMutability": "nonpayable",
      "type": "function"
    },
    {
      "inputs": [
        {
          "internalType": "uint256",
          "name": "index",
          "type": "uint256"
        },
        {
          "internalType": "address",
          "name": "account",
          "type": "address"
        },
        {
          "internalType": "uint256",
          "name": "baseAmount",
          "type": "uint256"
        },
        {
          "internalType": "bytes32[]",
          "name": "merkleProof",
          "type": "bytes32[]"
        }
      ],
      "name": "freeClaimable",
      "outputs": [
        {
          "internalType": "uint256",
          "name": "",
          "type": "uint256"
        }
      ],
      "stateMutability": "view",
      "type": "function"
    },
    {
      "inputs": [
        {
          "internalType": "uint256",
          "name": "tokenId",
          "type": "uint256"
        }
      ],
      "name": "getApproved",
      "outputs": [
        {
          "internalType": "address",
          "name": "",
          "type": "address"
        }
      ],
      "stateMutability": "view",
      "type": "function"
    },
    {
      "inputs": [
        {
          "internalType": "address",
          "name": "owner",
          "type": "address"
        },
        {
          "internalType": "address",
          "name": "operator",
          "type": "address"
        }
      ],
      "name": "isApprovedForAll",
      "outputs": [
        {
          "internalType": "bool",
          "name": "",
          "type": "bool"
        }
      ],
      "stateMutability": "view",
      "type": "function"
    },
    {
      "inputs": [],
      "name": "merkleRoot",
      "outputs": [
        {
          "internalType": "bytes32",
          "name": "",
          "type": "bytes32"
        }
      ],
      "stateMutability": "view",
      "type": "function"
    },
    {
      "inputs": [
        {
          "internalType": "uint256",
          "name": "amount",
          "type": "uint256"
        }
      ],
      "name": "mint",
      "outputs": [],
      "stateMutability": "payable",
      "type": "function"
    },
    {
      "inputs": [],
      "name": "mintPrice",
      "outputs": [
        {
          "internalType": "uint256",
          "name": "",
          "type": "uint256"
        }
      ],
      "stateMutability": "view",
      "type": "function"
    },
    {
      "inputs": [],
      "name": "name",
      "outputs": [
        {
          "internalType": "string",
          "name": "",
          "type": "string"
        }
      ],
      "stateMutability": "view",
      "type": "function"
    },
    {
      "inputs": [],
      "name": "owner",
      "outputs": [
        {
          "internalType": "address",
          "name": "",
          "type": "address"
        }
      ],
      "stateMutability": "view",
      "type": "function"
    },
    {
      "inputs": [
        {
          "internalType": "uint256",
          "name": "tokenId",
          "type": "uint256"
        }
      ],
      "name": "ownerOf",
      "outputs": [
        {
          "internalType": "address",
          "name": "",
          "type": "address"
        }
      ],
      "stateMutability": "view",
      "type": "function"
    },
    {
      "inputs": [],
      "name": "renounceOwnership",
      "outputs": [],
      "stateMutability": "nonpayable",
      "type": "function"
    },
    {
      "inputs": [
        {
          "internalType": "address",
          "name": "from",
          "type": "address"
        },
        {
          "internalType": "address",
          "name": "to",
          "type": "address"
        },
        {
          "internalType": "uint256",
          "name": "tokenId",
          "type": "uint256"
        }
      ],
      "name": "safeTransferFrom",
      "outputs": [],
      "stateMutability": "nonpayable",
      "type": "function"
    },
    {
      "inputs": [
        {
          "internalType": "address",
          "name": "from",
          "type": "address"
        },
        {
          "internalType": "address",
          "name": "to",
          "type": "address"
        },
        {
          "internalType": "uint256",
          "name": "tokenId",
          "type": "uint256"
        },
        {
          "internalType": "bytes",
          "name": "_data",
          "type": "bytes"
        }
      ],
      "name": "safeTransferFrom",
      "outputs": [],
      "stateMutability": "nonpayable",
      "type": "function"
    },
    {
      "inputs": [
        {
          "internalType": "address",
          "name": "operator",
          "type": "address"
        },
        {
          "internalType": "bool",
          "name": "approved",
          "type": "bool"
        }
      ],
      "name": "setApprovalForAll",
      "outputs": [],
      "stateMutability": "nonpayable",
      "type": "function"
    },
    {
      "inputs": [
        {
          "internalType": "bytes32",
          "name": "_merkleRoot",
          "type": "bytes32"
        }
      ],
      "name": "setMerkleRoot",
      "outputs": [],
      "stateMutability": "nonpayable",
      "type": "function"
    },
    {
      "inputs": [
        {
          "internalType": "string",
          "name": "URI",
          "type": "string"
        }
      ],
      "name": "setTokenBaseURI",
      "outputs": [],
      "stateMutability": "nonpayable",
      "type": "function"
    },
    {
      "inputs": [],
      "name": "startSale",
      "outputs": [],
      "stateMutability": "nonpayable",
      "type": "function"
    },
    {
      "inputs": [
        {
          "internalType": "bytes4",
          "name": "interfaceId",
          "type": "bytes4"
        }
      ],
      "name": "supportsInterface",
      "outputs": [
        {
          "internalType": "bool",
          "name": "",
          "type": "bool"
        }
      ],
      "stateMutability": "view",
      "type": "function"
    },
    {
      "inputs": [],
      "name": "symbol",
      "outputs": [
        {
          "internalType": "string",
          "name": "",
          "type": "string"
        }
      ],
      "stateMutability": "view",
      "type": "function"
    },
    {
      "inputs": [
        {
          "internalType": "uint256",
          "name": "tokenId",
          "type": "uint256"
        }
      ],
      "name": "tokenURI",
      "outputs": [
        {
          "internalType": "string",
          "name": "",
          "type": "string"
        }
      ],
      "stateMutability": "view",
      "type": "function"
    },
    {
      "inputs": [],
      "name": "totalMinted",
      "outputs": [
        {
          "internalType": "uint256",
          "name": "",
          "type": "uint256"
        }
      ],
      "stateMutability": "view",
      "type": "function"
    },
    {
      "inputs": [],
      "name": "totalSupply",
      "outputs": [
        {
          "internalType": "uint256",
          "name": "",
          "type": "uint256"
        }
      ],
      "stateMutability": "view",
      "type": "function"
    },
    {
      "inputs": [
        {
          "internalType": "address",
          "name": "from",
          "type": "address"
        },
        {
          "internalType": "address",
          "name": "to",
          "type": "address"
        },
        {
          "internalType": "uint256",
          "name": "tokenId",
          "type": "uint256"
        }
      ],
      "name": "transferFrom",
      "outputs": [],
      "stateMutability": "nonpayable",
      "type": "function"
    },
    {
      "inputs": [
        {
          "internalType": "address",
          "name": "newOwner",
          "type": "address"
        }
      ],
      "name": "transferOwnership",
      "outputs": [],
      "stateMutability": "nonpayable",
      "type": "function"
    },
    {
      "inputs": [],
      "name": "withdraw",
      "outputs": [],
      "stateMutability": "nonpayable",
      "type": "function"
    },
    {
      "stateMutability": "payable",
      "type": "receive"
    }
  ],
  "transactionHash": "0x61468092e633108faaf28cdc844272ede196a9d4f2d074a664ffdd469a463574",
  "args": [
    "0x3456c21504892c3b0c9c4be0bbbb72b623ffd96a70c4424d80d8d111a52b5b56"
  ],
  "numDeployments": 7,
  "solcInputHash": "58aba3d9467c641c214567d92662a5a4",
  "bytecode": "0x6009805460ff1916905566470de4df820000600b556000600c81905560a0604081905260808290526200003691600d919062000153565b503480156200004457600080fd5b5060405162002590380380620025908339810160408190526200006791620001f9565b60405180604001604052806008815260200167119d58dad19a585d60c21b81525060405180604001604052806008815260200167119d58dad19a585d60c21b815250620000c3620000bd620000ff60201b60201c565b62000103565b8151620000d890600290602085019062000153565b508051620000ee90600390602084019062000153565b5050600160085550600a556200024f565b3390565b600080546001600160a01b038381166001600160a01b0319831681178455604051919092169283917f8be0079c531659141344cd1fd0a4f28419497f9722a3daafe3b4186f6b6457e09190a35050565b828054620001619062000212565b90600052602060002090601f016020900481019282620001855760008555620001d0565b82601f10620001a057805160ff1916838001178555620001d0565b82800160010185558215620001d0579182015b82811115620001d0578251825591602001919060010190620001b3565b50620001de929150620001e2565b5090565b5b80821115620001de5760008155600101620001e3565b6000602082840312156200020b578081fd5b5051919050565b6002810460018216806200022757607f821691505b602082108114156200024957634e487b7160e01b600052602260045260246000fd5b50919050565b612331806200025f6000396000f3fe6080604052600436106101d15760003560e01c8063715018a6116100f7578063a2309ff811610095578063c87b56dd11610064578063c87b56dd146104df578063cdf5b962146104ff578063e985e9c51461051f578063f2fde38b14610568576101d8565b8063a2309ff814610474578063ae0b51df1461048a578063b66a0e5d146104aa578063b88d4fde146104bf576101d8565b80638ef79e91116100d15780638ef79e911461040c57806395d89b411461042c578063a0712d6814610441578063a22cb46514610454576101d8565b8063715018a6146103b95780637cb64759146103ce5780638da5cb5b146103ee576101d8565b80632eb4a7ab1161016f57806342842e0e1161013e57806342842e0e146103435780636352211e146103635780636817c76c1461038357806370a0823114610399576101d8565b80632eb4a7ab146102ed57806332cb6b0c14610303578063380d831b146103195780633ccfd60b1461032e576101d8565b8063095ea7b3116101ab578063095ea7b31461026c57806318160ddd1461028e57806323b872dd146102ad57806327ed69d2146102cd576101d8565b806301ffc9a7146101dd57806306fdde0314610212578063081812fc14610234576101d8565b366101d857005b600080fd5b3480156101e957600080fd5b506101fd6101f8366004611f0c565b610588565b60405190151581526020015b60405180910390f35b34801561021e57600080fd5b506102276105dc565b60405161020991906120d9565b34801561024057600080fd5b5061025461024f366004611ef4565b61066e565b6040516001600160a01b039091168152602001610209565b34801561027857600080fd5b5061028c610287366004611ecb565b6106fe565b005b34801561029a57600080fd5b506001545b604051908152602001610209565b3480156102b957600080fd5b5061028c6102c8366004611ddd565b610816565b3480156102d957600080fd5b5061029f6102e8366004611ef4565b610821565b3480156102f957600080fd5b5061029f600a5481565b34801561030f57600080fd5b5061029f61271081565b34801561032557600080fd5b5061028c610838565b34801561033a57600080fd5b5061028c61086e565b34801561034f57600080fd5b5061028c61035e366004611ddd565b6108e4565b34801561036f57600080fd5b5061025461037e366004611ef4565b6108ff565b34801561038f57600080fd5b5061029f600b5481565b3480156103a557600080fd5b5061029f6103b4366004611d91565b610911565b3480156103c557600080fd5b5061028c6109a2565b3480156103da57600080fd5b5061028c6103e9366004611ef4565b6109d8565b3480156103fa57600080fd5b506000546001600160a01b0316610254565b34801561041857600080fd5b5061028c610427366004611f44565b610a07565b34801561043857600080fd5b50610227610a48565b61028c61044f366004611ef4565b610a57565b34801561046057600080fd5b5061028c61046f366004611e91565b610bf8565b34801561048057600080fd5b5061029f600c5481565b34801561049657600080fd5b5061028c6104a5366004611ff0565b610cca565b3480156104b657600080fd5b5061028c610ec0565b3480156104cb57600080fd5b5061028c6104da366004611e18565b610ef9565b3480156104eb57600080fd5b506102276104fa366004611ef4565b610f32565b34801561050b57600080fd5b5061029f61051a366004611f8a565b610f3d565b34801561052b57600080fd5b506101fd61053a366004611dab565b6001600160a01b03918216600090815260076020908152604080832093909416825291909152205460ff1690565b34801561057457600080fd5b5061028c610583366004611d91565b611025565b60006001600160e01b031982166380ac58cd60e01b14806105b957506001600160e01b03198216635b5e139f60e01b145b806105d457506301ffc9a760e01b6001600160e01b03198316145b90505b919050565b6060600280546105eb90612239565b80601f016020809104026020016040519081016040528092919081815260200182805461061790612239565b80156106645780601f1061063957610100808354040283529160200191610664565b820191906000526020600020905b81548152906001019060200180831161064757829003601f168201915b5050505050905090565b600061067b826001541190565b6106e25760405162461bcd60e51b815260206004820152602d60248201527f455243373231413a20617070726f76656420717565727920666f72206e6f6e6560448201526c3c34b9ba32b73a103a37b5b2b760991b60648201526084015b60405180910390fd5b506000908152600660205260409020546001600160a01b031690565b6000610709826108ff565b9050806001600160a01b0316836001600160a01b031614156107785760405162461bcd60e51b815260206004820152602260248201527f455243373231413a20617070726f76616c20746f2063757272656e74206f776e60448201526132b960f11b60648201526084016106d9565b336001600160a01b03821614806107945750610794813361053a565b6108065760405162461bcd60e51b815260206004820152603960248201527f455243373231413a20617070726f76652063616c6c6572206973206e6f74206f60448201527f776e6572206e6f7220617070726f76656420666f7220616c6c0000000000000060648201526084016106d9565b6108118383836110c0565b505050565b61081183838361111c565b60006105d4600b548361142090919063ffffffff16565b6000546001600160a01b031633146108625760405162461bcd60e51b81526004016106d9906120ec565b6009805460ff19169055565b6000546001600160a01b031633146108985760405162461bcd60e51b81526004016106d9906120ec565b600260085414156108bb5760405162461bcd60e51b81526004016106d990612174565b6002600855476108dc6108d66000546001600160a01b031690565b82611433565b506001600855565b61081183838360405180602001604052806000815250610ef9565b600061090a8261154c565b5192915050565b60006001600160a01b03821661097d5760405162461bcd60e51b815260206004820152602b60248201527f455243373231413a2062616c616e636520717565727920666f7220746865207a60448201526a65726f206164647265737360a81b60648201526084016106d9565b506001600160a01b03166000908152600560205260409020546001600160801b031690565b6000546001600160a01b031633146109cc5760405162461bcd60e51b81526004016106d9906120ec565b6109d66000611625565b565b6000546001600160a01b03163314610a025760405162461bcd60e51b81526004016106d9906120ec565b600a55565b6000546001600160a01b03163314610a315760405162461bcd60e51b81526004016106d9906120ec565b8051610a4490600d906020840190611c22565b5050565b6060600380546105eb90612239565b60095460ff168015610a6c5750612710600c54105b610aa55760405162461bcd60e51b815260206004820152600a6024820152696e6f742061637469766560b01b60448201526064016106d9565b60026008541415610ac85760405162461bcd60e51b81526004016106d990612174565b600260085580610b075760405162461bcd60e51b815260206004820152600a6024820152691e995c9bc818dbdd5b9d60b21b60448201526064016106d9565b600c54610b179061271090611675565b811115610b585760405162461bcd60e51b815260206004820152600f60248201526e6e6f7420656e6f756768206e66747360881b60448201526064016106d9565b6000610b6382610821565b90508015610bbb5780341015610bbb5760405162461bcd60e51b815260206004820152601760248201527f696e73756666696369656e742045544820616d6f756e7400000000000000000060448201526064016106d9565b610bce33610bc93484611675565b611681565b610bd8338361168b565b81600c6000828254610bea91906121ab565b909155505060016008555050565b6001600160a01b038216331415610c515760405162461bcd60e51b815260206004820152601a60248201527f455243373231413a20617070726f766520746f2063616c6c657200000000000060448201526064016106d9565b3360008181526007602090815260408083206001600160a01b0387168085529252909120805460ff1916841515179055906001600160a01b03167f17307eab39ab6107e8899845ad3d59bd9653f200f220920489ca2b5937696c3183604051610cbe911515815260200190565b60405180910390a35050565b60095460ff168015610cdf5750612710600c54105b610d185760405162461bcd60e51b815260206004820152600a6024820152696e6f742061637469766560b01b60448201526064016106d9565b60026008541415610d3b5760405162461bcd60e51b81526004016106d990612174565b6002600855336000908152600e602052604090205460ff1615610d935760405162461bcd60e51b815260206004820152601060248201526f616c726561647920636c61696d65642160801b60448201526064016106d9565b6000610da28533868686610f3d565b9050610dbb600c5461271061167590919063ffffffff16565b811115610dfc5760405162461bcd60e51b815260206004820152600f60248201526e6e6f7420656e6f756768206e66747360881b60448201526064016106d9565b60008111610e3f5760405162461bcd60e51b815260206004820152601060248201526f6e6f206e66747320746f20636c61696d60801b60448201526064016106d9565b610e49338261168b565b80600c6000828254610e5b91906121ab565b9091555050336000818152600e602052604090819020805460ff19166001179055517f9a5144decc53f6b58f03259fdf3dbbe442204dc12e09343ea840eee6d6f4285290610eac9084815260200190565b60405180910390a250506001600855505050565b6000546001600160a01b03163314610eea5760405162461bcd60e51b81526004016106d9906120ec565b6009805460ff19166001179055565b610f0484848461111c565b610f10848484846116a5565b610f2c5760405162461bcd60e51b81526004016106d990612121565b50505050565b60606105d4826117b3565b6001600160a01b0384166000908152600e602052604081205460ff1615610f665750600061101c565b604080516020808201899052606088901b6bffffffffffffffffffffffff191682840152605480830188905283518084039091018152607483018085528151918301919091206094928702808501840190955286825293600093610fe993899289928392019084908082843760009201919091525050600a549150859050611880565b905060008115611017576008871161100357506001611017565b6013871161101357506002611017565b5060035b925050505b95945050505050565b6000546001600160a01b0316331461104f5760405162461bcd60e51b81526004016106d9906120ec565b6001600160a01b0381166110b45760405162461bcd60e51b815260206004820152602660248201527f4f776e61626c653a206e6577206f776e657220697320746865207a65726f206160448201526564647265737360d01b60648201526084016106d9565b6110bd81611625565b50565b60008281526006602052604080822080546001600160a01b0319166001600160a01b0387811691821790925591518593918516917f8c5be1e5ebec7d5bd14f71427d1e84f3dd0314c0f7b2291e5b200ac8c7c3b92591a4505050565b60006111278261154c565b80519091506000906001600160a01b0316336001600160a01b0316148061115e5750336111538461066e565b6001600160a01b0316145b8061117057508151611170903361053a565b9050806111da5760405162461bcd60e51b815260206004820152603260248201527f455243373231413a207472616e736665722063616c6c6572206973206e6f74206044820152711bdddb995c881b9bdc88185c1c1c9bdd995960721b60648201526084016106d9565b846001600160a01b031682600001516001600160a01b03161461124e5760405162461bcd60e51b815260206004820152602660248201527f455243373231413a207472616e736665722066726f6d20696e636f72726563746044820152651037bbb732b960d11b60648201526084016106d9565b6001600160a01b0384166112b25760405162461bcd60e51b815260206004820152602560248201527f455243373231413a207472616e7366657220746f20746865207a65726f206164604482015264647265737360d81b60648201526084016106d9565b6112c260008484600001516110c0565b6001600160a01b03858116600090815260056020908152604080832080546001600160801b03198082166001600160801b03928316600019018316179092558986168086528386208054938416938316600190810190931693909317909255888552600490935281842080546001600160a01b03191690911767ffffffffffffffff60a01b1916600160a01b4267ffffffffffffffff16021790559086018083529120549091166113d657611378816001541190565b156113d6578251600082815260046020908152604090912080549186015167ffffffffffffffff16600160a01b0267ffffffffffffffff60a01b196001600160a01b039094166001600160a01b031990931692909217929092161790555b5082846001600160a01b0316866001600160a01b03167fddf252ad1be2c89b69c2b068fc378daa952ba7f163c4a11628f55a4df523b3ef60405160405180910390a45b5050505050565b600061142c82846121d7565b9392505050565b804710156114835760405162461bcd60e51b815260206004820152601d60248201527f416464726573733a20696e73756666696369656e742062616c616e636500000060448201526064016106d9565b6000826001600160a01b03168260405160006040518083038185875af1925050503d80600081146114d0576040519150601f19603f3d011682016040523d82523d6000602084013e6114d5565b606091505b50509050806108115760405162461bcd60e51b815260206004820152603a60248201527f416464726573733a20756e61626c6520746f2073656e642076616c75652c207260448201527f6563697069656e74206d6179206861766520726576657274656400000000000060648201526084016106d9565b604080518082019091526000808252602082015261156b826001541190565b6115ca5760405162461bcd60e51b815260206004820152602a60248201527f455243373231413a206f776e657220717565727920666f72206e6f6e657869736044820152693a32b73a103a37b5b2b760b11b60648201526084016106d9565b815b6000818152600460209081526040918290208251808401909352546001600160a01b038116808452600160a01b90910467ffffffffffffffff16918301919091521561161b5791506105d79050565b50600019016115cc565b600080546001600160a01b038381166001600160a01b0319831681178455604051919092169283917f8be0079c531659141344cd1fd0a4f28419497f9722a3daafe3b4186f6b6457e09190a35050565b600061142c82846121f6565b610a448282611433565b610a44828260405180602001604052806000815250611896565b60006001600160a01b0384163b156117a757604051630a85bd0160e11b81526001600160a01b0385169063150b7a02906116e990339089908890889060040161209c565b602060405180830381600087803b15801561170357600080fd5b505af1925050508015611733575060408051601f3d908101601f1916820190925261173091810190611f28565b60015b61178d573d808015611761576040519150601f19603f3d011682016040523d82523d6000602084013e611766565b606091505b5080516117855760405162461bcd60e51b81526004016106d990612121565b805181602001fd5b6001600160e01b031916630a85bd0160e11b1490506117ab565b5060015b949350505050565b60606117c0826001541190565b6118245760405162461bcd60e51b815260206004820152602f60248201527f4552433732314d657461646174613a2055524920717565727920666f72206e6f60448201526e3732bc34b9ba32b73a103a37b5b2b760891b60648201526084016106d9565b600061182e6118a3565b905080516000141561184f576040518060200160405280600081525061142c565b80611859846118b2565b60405160200161186a92919061206d565b6040516020818303038152906040529392505050565b60008261188d85846119cd565b14949350505050565b6108118383836001611a4f565b6060600d80546105eb90612239565b6060816118d757506040805180820190915260018152600360fc1b60208201526105d7565b8160005b811561190157806118eb81612274565b91506118fa9050600a836121c3565b91506118db565b60008167ffffffffffffffff81111561192a57634e487b7160e01b600052604160045260246000fd5b6040519080825280601f01601f191660200182016040528015611954576020820181803683370190505b5090505b84156117ab576119696001836121f6565b9150611976600a8661228f565b6119819060306121ab565b60f81b8183815181106119a457634e487b7160e01b600052603260045260246000fd5b60200101906001600160f81b031916908160001a9053506119c6600a866121c3565b9450611958565b600081815b8451811015611a475760008582815181106119fd57634e487b7160e01b600052603260045260246000fd5b60200260200101519050808311611a235760008381526020829052604090209250611a34565b600081815260208490526040902092505b5080611a3f81612274565b9150506119d2565b509392505050565b6001546001600160a01b038516611ab25760405162461bcd60e51b815260206004820152602160248201527f455243373231413a206d696e7420746f20746865207a65726f206164647265736044820152607360f81b60648201526084016106d9565b83611b105760405162461bcd60e51b815260206004820152602860248201527f455243373231413a207175616e74697479206d75737420626520677265617465604482015267072207468616e20360c41b60648201526084016106d9565b6001600160a01b038516600081815260056020908152604080832080546001600160801b031981166001600160801b039182168b01821617808216600160801b9182900483168c01909216021790558483526004909152812080546001600160a01b03191690921767ffffffffffffffff60a01b1916600160a01b4267ffffffffffffffff16021790915581905b85811015611c195760405182906001600160a01b038916906000907fddf252ad1be2c89b69c2b068fc378daa952ba7f163c4a11628f55a4df523b3ef908290a48315611c0d57611bf160008884886116a5565b611c0d5760405162461bcd60e51b81526004016106d990612121565b60019182019101611b9e565b50600155611419565b828054611c2e90612239565b90600052602060002090601f016020900481019282611c505760008555611c96565b82601f10611c6957805160ff1916838001178555611c96565b82800160010185558215611c96579182015b82811115611c96578251825591602001919060010190611c7b565b50611ca2929150611ca6565b5090565b5b80821115611ca25760008155600101611ca7565b600067ffffffffffffffff80841115611cd657611cd66122cf565b604051601f8501601f19908116603f01168101908282118183101715611cfe57611cfe6122cf565b81604052809350858152868686011115611d1757600080fd5b858560208301376000602087830101525050509392505050565b80356001600160a01b03811681146105d757600080fd5b60008083601f840112611d59578081fd5b50813567ffffffffffffffff811115611d70578182fd5b6020830191508360208083028501011115611d8a57600080fd5b9250929050565b600060208284031215611da2578081fd5b61142c82611d31565b60008060408385031215611dbd578081fd5b611dc683611d31565b9150611dd460208401611d31565b90509250929050565b600080600060608486031215611df1578081fd5b611dfa84611d31565b9250611e0860208501611d31565b9150604084013590509250925092565b60008060008060808587031215611e2d578081fd5b611e3685611d31565b9350611e4460208601611d31565b925060408501359150606085013567ffffffffffffffff811115611e66578182fd5b8501601f81018713611e76578182fd5b611e8587823560208401611cbb565b91505092959194509250565b60008060408385031215611ea3578182fd5b611eac83611d31565b915060208301358015158114611ec0578182fd5b809150509250929050565b60008060408385031215611edd578182fd5b611ee683611d31565b946020939093013593505050565b600060208284031215611f05578081fd5b5035919050565b600060208284031215611f1d578081fd5b813561142c816122e5565b600060208284031215611f39578081fd5b815161142c816122e5565b600060208284031215611f55578081fd5b813567ffffffffffffffff811115611f6b578182fd5b8201601f81018413611f7b578182fd5b6117ab84823560208401611cbb565b600080600080600060808688031215611fa1578081fd5b85359450611fb160208701611d31565b935060408601359250606086013567ffffffffffffffff811115611fd3578182fd5b611fdf88828901611d48565b969995985093965092949392505050565b60008060008060608587031215612005578182fd5b8435935060208501359250604085013567ffffffffffffffff811115612029578283fd5b61203587828801611d48565b95989497509550505050565b6000815180845261205981602086016020860161220d565b601f01601f19169290920160200192915050565b6000835161207f81846020880161220d565b83519083019061209381836020880161220d565b01949350505050565b6001600160a01b03858116825284166020820152604081018390526080606082018190526000906120cf90830184612041565b9695505050505050565b60006020825261142c6020830184612041565b6020808252818101527f4f776e61626c653a2063616c6c6572206973206e6f7420746865206f776e6572604082015260600190565b60208082526033908201527f455243373231413a207472616e7366657220746f206e6f6e204552433732315260408201527232b1b2b4bb32b91034b6b83632b6b2b73a32b960691b606082015260800190565b6020808252601f908201527f5265656e7472616e637947756172643a207265656e7472616e742063616c6c00604082015260600190565b600082198211156121be576121be6122a3565b500190565b6000826121d2576121d26122b9565b500490565b60008160001904831182151516156121f1576121f16122a3565b500290565b600082821015612208576122086122a3565b500390565b60005b83811015612228578181015183820152602001612210565b83811115610f2c5750506000910152565b60028104600182168061224d57607f821691505b6020821081141561226e57634e487b7160e01b600052602260045260246000fd5b50919050565b6000600019821415612288576122886122a3565b5060010190565b60008261229e5761229e6122b9565b500690565b634e487b7160e01b600052601160045260246000fd5b634e487b7160e01b600052601260045260246000fd5b634e487b7160e01b600052604160045260246000fd5b6001600160e01b0319811681146110bd57600080fdfea2646970667358221220b3381b85c36cff9586061dcb206bf8533b7b7cda5fc8beac2e7b3779a68f377a64736f6c63430008020033",
  "devdoc": {
    "kind": "dev",
    "methods": {
      "approve(address,uint256)": {
        "details": "See {IERC721-approve}."
      },
      "balanceOf(address)": {
        "details": "See {IERC721-balanceOf}."
      },
      "getApproved(uint256)": {
        "details": "See {IERC721-getApproved}."
      },
      "isApprovedForAll(address,address)": {
        "details": "See {IERC721-isApprovedForAll}."
      },
      "name()": {
        "details": "See {IERC721Metadata-name}."
      },
      "owner()": {
        "details": "Returns the address of the current owner."
      },
      "ownerOf(uint256)": {
        "details": "See {IERC721-ownerOf}."
      },
      "renounceOwnership()": {
        "details": "Leaves the contract without owner. It will not be possible to call `onlyOwner` functions anymore. Can only be called by the current owner. NOTE: Renouncing ownership will leave the contract without an owner, thereby removing any functionality that is only available to the owner."
      },
      "safeTransferFrom(address,address,uint256)": {
        "details": "See {IERC721-safeTransferFrom}."
      },
      "safeTransferFrom(address,address,uint256,bytes)": {
        "details": "See {IERC721-safeTransferFrom}."
      },
      "setApprovalForAll(address,bool)": {
        "details": "See {IERC721-setApprovalForAll}."
      },
      "supportsInterface(bytes4)": {
        "details": "See {IERC165-supportsInterface}."
      },
      "symbol()": {
        "details": "See {IERC721Metadata-symbol}."
      },
      "tokenURI(uint256)": {
        "details": "See {IERC721Metadata-tokenURI}."
      },
      "transferFrom(address,address,uint256)": {
        "details": "See {IERC721-transferFrom}."
      },
      "transferOwnership(address)": {
        "details": "Transfers ownership of the contract to a new account (`newOwner`). Can only be called by the current owner."
      }
    },
    "version": 1
  },
  "userdoc": {
    "kind": "user",
    "methods": {},
    "version": 1
  },
  "storageLayout": {
    "storage": [
      {
        "astId": 7,
        "contract": "contracts/FuckFiat.sol:FuckFiat",
        "label": "_owner",
        "offset": 0,
        "slot": "0",
        "type": "t_address"
      },
      {
        "astId": 2044,
        "contract": "contracts/FuckFiat.sol:FuckFiat",
        "label": "currentIndex",
        "offset": 0,
        "slot": "1",
        "type": "t_uint256"
      },
      {
        "astId": 2046,
        "contract": "contracts/FuckFiat.sol:FuckFiat",
        "label": "_name",
        "offset": 0,
        "slot": "2",
        "type": "t_string_storage"
      },
      {
        "astId": 2048,
        "contract": "contracts/FuckFiat.sol:FuckFiat",
        "label": "_symbol",
        "offset": 0,
        "slot": "3",
        "type": "t_string_storage"
      },
      {
        "astId": 2053,
        "contract": "contracts/FuckFiat.sol:FuckFiat",
        "label": "_ownerships",
        "offset": 0,
        "slot": "4",
        "type": "t_mapping(t_uint256,t_struct(TokenOwnership)2037_storage)"
      },
      {
        "astId": 2058,
        "contract": "contracts/FuckFiat.sol:FuckFiat",
        "label": "_addressData",
        "offset": 0,
        "slot": "5",
        "type": "t_mapping(t_address,t_struct(AddressData)2042_storage)"
      },
      {
        "astId": 2062,
        "contract": "contracts/FuckFiat.sol:FuckFiat",
        "label": "_tokenApprovals",
        "offset": 0,
        "slot": "6",
        "type": "t_mapping(t_uint256,t_address)"
      },
      {
        "astId": 2068,
        "contract": "contracts/FuckFiat.sol:FuckFiat",
        "label": "_operatorApprovals",
        "offset": 0,
        "slot": "7",
        "type": "t_mapping(t_address,t_mapping(t_address,t_bool))"
      },
      {
        "astId": 115,
        "contract": "contracts/FuckFiat.sol:FuckFiat",
        "label": "_status",
        "offset": 0,
        "slot": "8",
        "type": "t_uint256"
      },
      {
        "astId": 1598,
        "contract": "contracts/FuckFiat.sol:FuckFiat",
        "label": "_isActive",
        "offset": 0,
        "slot": "9",
        "type": "t_bool"
      },
      {
        "astId": 1600,
        "contract": "contracts/FuckFiat.sol:FuckFiat",
        "label": "merkleRoot",
        "offset": 0,
        "slot": "10",
        "type": "t_bytes32"
      },
      {
        "astId": 1606,
        "contract": "contracts/FuckFiat.sol:FuckFiat",
        "label": "mintPrice",
        "offset": 0,
        "slot": "11",
        "type": "t_uint256"
      },
      {
        "astId": 1609,
        "contract": "contracts/FuckFiat.sol:FuckFiat",
        "label": "totalMinted",
        "offset": 0,
        "slot": "12",
        "type": "t_uint256"
      },
      {
        "astId": 1612,
        "contract": "contracts/FuckFiat.sol:FuckFiat",
        "label": "_tokenBaseURI",
        "offset": 0,
        "slot": "13",
        "type": "t_string_storage"
      },
      {
        "astId": 1622,
        "contract": "contracts/FuckFiat.sol:FuckFiat",
        "label": "freeClaimedMap",
        "offset": 0,
        "slot": "14",
        "type": "t_mapping(t_address,t_bool)"
      }
    ],
    "types": {
      "t_address": {
        "encoding": "inplace",
        "label": "address",
        "numberOfBytes": "20"
      },
      "t_bool": {
        "encoding": "inplace",
        "label": "bool",
        "numberOfBytes": "1"
      },
      "t_bytes32": {
        "encoding": "inplace",
        "label": "bytes32",
        "numberOfBytes": "32"
      },
      "t_mapping(t_address,t_bool)": {
        "encoding": "mapping",
        "key": "t_address",
        "label": "mapping(address => bool)",
        "numberOfBytes": "32",
        "value": "t_bool"
      },
      "t_mapping(t_address,t_mapping(t_address,t_bool))": {
        "encoding": "mapping",
        "key": "t_address",
        "label": "mapping(address => mapping(address => bool))",
        "numberOfBytes": "32",
        "value": "t_mapping(t_address,t_bool)"
      },
      "t_mapping(t_address,t_struct(AddressData)2042_storage)": {
        "encoding": "mapping",
        "key": "t_address",
        "label": "mapping(address => struct ERC721A.AddressData)",
        "numberOfBytes": "32",
        "value": "t_struct(AddressData)2042_storage"
      },
      "t_mapping(t_uint256,t_address)": {
        "encoding": "mapping",
        "key": "t_uint256",
        "label": "mapping(uint256 => address)",
        "numberOfBytes": "32",
        "value": "t_address"
      },
      "t_mapping(t_uint256,t_struct(TokenOwnership)2037_storage)": {
        "encoding": "mapping",
        "key": "t_uint256",
        "label": "mapping(uint256 => struct ERC721A.TokenOwnership)",
        "numberOfBytes": "32",
        "value": "t_struct(TokenOwnership)2037_storage"
      },
      "t_string_storage": {
        "encoding": "bytes",
        "label": "string",
        "numberOfBytes": "32"
      },
      "t_struct(AddressData)2042_storage": {
        "encoding": "inplace",
        "label": "struct ERC721A.AddressData",
        "members": [
          {
            "astId": 2039,
            "contract": "contracts/FuckFiat.sol:FuckFiat",
            "label": "balance",
            "offset": 0,
            "slot": "0",
            "type": "t_uint128"
          },
          {
            "astId": 2041,
            "contract": "contracts/FuckFiat.sol:FuckFiat",
            "label": "numberMinted",
            "offset": 16,
            "slot": "0",
            "type": "t_uint128"
          }
        ],
        "numberOfBytes": "32"
      },
      "t_struct(TokenOwnership)2037_storage": {
        "encoding": "inplace",
        "label": "struct ERC721A.TokenOwnership",
        "members": [
          {
            "astId": 2034,
            "contract": "contracts/FuckFiat.sol:FuckFiat",
            "label": "addr",
            "offset": 0,
            "slot": "0",
            "type": "t_address"
          },
          {
            "astId": 2036,
            "contract": "contracts/FuckFiat.sol:FuckFiat",
            "label": "startTimestamp",
            "offset": 20,
            "slot": "0",
            "type": "t_uint64"
          }
        ],
        "numberOfBytes": "32"
      },
      "t_uint128": {
        "encoding": "inplace",
        "label": "uint128",
        "numberOfBytes": "16"
      },
      "t_uint256": {
        "encoding": "inplace",
        "label": "uint256",
        "numberOfBytes": "32"
      },
      "t_uint64": {
        "encoding": "inplace",
        "label": "uint64",
        "numberOfBytes": "8"
      }
    }
  }
}